{
  "contractName": "AmazonPayDonation",
  "abi": [
    {
      "inputs": [],
      "stateMutability": "nonpayable",
      "type": "constructor"
    },
    {
      "anonymous": false,
      "inputs": [
        {
          "indexed": true,
          "internalType": "bytes32",
          "name": "userId",
          "type": "bytes32"
        },
        {
          "indexed": true,
          "internalType": "bytes32",
          "name": "oroId",
          "type": "bytes32"
        },
        {
          "indexed": false,
          "internalType": "uint256",
          "name": "amount",
          "type": "uint256"
        }
      ],
      "name": "Donated",
      "type": "event"
    },
    {
      "inputs": [
        {
          "internalType": "bytes32",
          "name": "",
          "type": "bytes32"
        },
        {
          "internalType": "uint256",
          "name": "",
          "type": "uint256"
        }
      ],
      "name": "donations",
      "outputs": [
        {
          "internalType": "bytes32",
          "name": "userId",
          "type": "bytes32"
        },
        {
          "internalType": "bytes32",
          "name": "oroId",
          "type": "bytes32"
        },
        {
          "internalType": "uint256",
          "name": "amount",
          "type": "uint256"
        },
        {
          "internalType": "uint256",
          "name": "timestamp",
          "type": "uint256"
        }
      ],
      "stateMutability": "view",
      "type": "function",
      "constant": true
    },
    {
      "inputs": [],
      "name": "owner",
      "outputs": [
        {
          "internalType": "address",
          "name": "",
          "type": "address"
        }
      ],
      "stateMutability": "view",
      "type": "function",
      "constant": true
    },
    {
      "inputs": [],
      "name": "total",
      "outputs": [
        {
          "internalType": "uint256",
          "name": "",
          "type": "uint256"
        }
      ],
      "stateMutability": "view",
      "type": "function",
      "constant": true
    },
    {
      "inputs": [
        {
          "internalType": "bytes32",
          "name": "",
          "type": "bytes32"
        }
      ],
      "name": "totalDonation",
      "outputs": [
        {
          "internalType": "uint256",
          "name": "",
          "type": "uint256"
        }
      ],
      "stateMutability": "view",
      "type": "function",
      "constant": true
    },
    {
      "inputs": [
        {
          "components": [
            {
              "internalType": "bytes32",
              "name": "userId",
              "type": "bytes32"
            },
            {
              "internalType": "bytes32",
              "name": "oroId",
              "type": "bytes32"
            },
            {
              "internalType": "uint256",
              "name": "amount",
              "type": "uint256"
            },
            {
              "internalType": "uint256",
              "name": "timestamp",
              "type": "uint256"
            }
          ],
          "internalType": "struct AmazonPayDonation.Donation",
          "name": "donationInfo",
          "type": "tuple"
        }
      ],
      "name": "saveDonation",
      "outputs": [],
      "stateMutability": "nonpayable",
      "type": "function"
    },
    {
      "inputs": [
        {
          "internalType": "bytes32",
          "name": "userId",
          "type": "bytes32"
        }
      ],
      "name": "countDonation",
      "outputs": [
        {
          "internalType": "uint256",
          "name": "",
          "type": "uint256"
        }
      ],
      "stateMutability": "view",
      "type": "function",
      "constant": true
    }
  ],
  "bytecode": "0x608060405234801561001057600080fd5b50336000806101000a81548173ffffffffffffffffffffffffffffffffffffffff021916908373ffffffffffffffffffffffffffffffffffffffff1602179055506107cb806100606000396000f3fe608060405234801561001057600080fd5b50600436106100625760003560e01c80632ddbd13a146100675780637d7ad17b1461008557806389c013ee146100b55780638da5cb5b146100e5578063c7c2a09a14610103578063f78c6b541461011f575b600080fd5b61006f610152565b60405161007c91906105a7565b60405180910390f35b61009f600480360381019061009a919061043d565b610158565b6040516100ac91906105a7565b60405180910390f35b6100cf60048036038101906100ca919061043d565b610178565b6040516100dc91906105a7565b60405180910390f35b6100ed610190565b6040516100fa9190610527565b60405180910390f35b61011d600480360381019061011891906104aa565b6101b4565b005b6101396004803603810190610134919061046a565b61034e565b6040516101499493929190610542565b60405180910390f35b60015481565b600060026000838152602001908152602001600020805490509050919050565b60036020528060005260406000206000915090505481565b60008054906101000a900473ffffffffffffffffffffffffffffffffffffffff1681565b3373ffffffffffffffffffffffffffffffffffffffff1660008054906101000a900473ffffffffffffffffffffffffffffffffffffffff1673ffffffffffffffffffffffffffffffffffffffff1614610242576040517f08c379a000000000000000000000000000000000000000000000000000000000815260040161023990610587565b60405180910390fd5b4281606001818152505060026000826000015181526020019081526020016000208190806001815401808255809150506001900390600052602060002090600402016000909190919091506000820151816000015560208201518160010155604082015181600201556060820151816003015550508060400151600360008360000151815260200190815260200160002060008282546102e291906105f8565b925050819055508060400151600160008282546102ff91906105f8565b92505081905550806020015181600001517f30032eb035ade4d6cd563553a5bf9f8c048a79b571b2cdcbb9e3ea5c65b2004a836040015160405161034391906105a7565b60405180910390a350565b6002602052816000526040600020818154811061036a57600080fd5b9060005260206000209060040201600091509150508060000154908060010154908060020154908060030154905084565b6000813590506103aa81610767565b92915050565b6000608082840312156103c6576103c5610723565b5b6103d060806105c2565b905060006103e08482850161039b565b60008301525060206103f48482850161039b565b602083015250604061040884828501610428565b604083015250606061041c84828501610428565b60608301525092915050565b6000813590506104378161077e565b92915050565b60006020828403121561045357610452610728565b5b60006104618482850161039b565b91505092915050565b6000806040838503121561048157610480610728565b5b600061048f8582860161039b565b92505060206104a085828601610428565b9150509250929050565b6000608082840312156104c0576104bf610728565b5b60006104ce848285016103b0565b91505092915050565b6104e08161064e565b82525050565b6104ef81610660565b82525050565b60006105026020836105e7565b915061050d8261073e565b602082019050919050565b6105218161068a565b82525050565b600060208201905061053c60008301846104d7565b92915050565b600060808201905061055760008301876104e6565b61056460208301866104e6565b6105716040830185610518565b61057e6060830184610518565b95945050505050565b600060208201905081810360008301526105a0816104f5565b9050919050565b60006020820190506105bc6000830184610518565b92915050565b60006105cc6105dd565b90506105d88282610694565b919050565b6000604051905090565b600082825260208201905092915050565b60006106038261068a565b915061060e8361068a565b9250827fffffffffffffffffffffffffffffffffffffffffffffffffffffffffffffffff03821115610643576106426106c5565b5b828201905092915050565b60006106598261066a565b9050919050565b6000819050919050565b600073ffffffffffffffffffffffffffffffffffffffff82169050919050565b6000819050919050565b61069d8261072d565b810181811067ffffffffffffffff821117156106bc576106bb6106f4565b5b80604052505050565b7f4e487b7100000000000000000000000000000000000000000000000000000000600052601160045260246000fd5b7f4e487b7100000000000000000000000000000000000000000000000000000000600052604160045260246000fd5b600080fd5b600080fd5b6000601f19601f8301169050919050565b7f4f776e61626c653a2063616c6c6572206973206e6f7420746865206f776e6572600082015250565b61077081610660565b811461077b57600080fd5b50565b6107878161068a565b811461079257600080fd5b5056fea2646970667358221220bd07c498ee5a1f59d25ba61144d78819181190b4d634d89f9452b83c1c84691e64736f6c63430008070033",
  "immutableReferences": {},
  "source": "// SPDX-License-Identifier: MIT\npragma solidity >=0.8.0 <0.9.0;\n\ncontract AmazonPayDonation {\n\n  address public owner;\n\n  event Donated(bytes32 indexed userId, bytes32 indexed oroId, uint amount );\n\n  struct Donation {\n    bytes32 userId;\n    bytes32 oroId;\n    uint amount;\n    uint timestamp;\n  }\n\n  uint public total;\n  mapping(bytes32 => Donation[]) public donations;\n  mapping(bytes32 => uint) public totalDonation;\n\n  constructor() {\n    owner = msg.sender;\n  }\n\n  function saveDonation(Donation memory donationInfo) public onlyOwner {\n    donationInfo.timestamp = block.timestamp;\n    donations[donationInfo.userId].push(donationInfo);\n    totalDonation[donationInfo.userId] += donationInfo.amount;\n    total += donationInfo.amount;\n    emit Donated(donationInfo.userId, donationInfo.oroId, donationInfo.amount);\n  }\n\n  function countDonation(bytes32 userId) public view returns (uint) {\n    return donations[userId].length;\n  }\n\n  modifier onlyOwner() {\n    require(owner == msg.sender, \"Ownable: caller is not the owner\");\n    _;\n  }\n}\n",
  "sourcePath": "/home/johna/src/crypto/AmazonPayDonationBlockchain/contracts/AmazonPayDonation.sol",
  "compiler": {
    "name": "solc",
    "version": "0.8.7+commit.e28d00a7.Emscripten.clang"
  },
  "schemaVersion": "3.4.1",
  "updatedAt": "2021-08-24T10:05:33.293Z",
  "networkType": "ethereum",
  "devdoc": {
    "kind": "dev",
    "methods": {},
    "version": 1
  },
  "userdoc": {
    "kind": "user",
    "methods": {},
    "version": 1
  }
}