{
  "contractName": "AmazonPayDonation",
  "abi": [
    {
      "inputs": [],
      "stateMutability": "nonpayable",
      "type": "constructor"
    },
    {
      "anonymous": false,
      "inputs": [
        {
          "indexed": false,
          "internalType": "string",
          "name": "userId",
          "type": "string"
        },
        {
          "indexed": false,
          "internalType": "string",
          "name": "oroId",
          "type": "string"
        },
        {
          "indexed": false,
          "internalType": "uint256",
          "name": "amount",
          "type": "uint256"
        }
      ],
      "name": "Donated",
      "type": "event"
    },
    {
      "inputs": [
        {
          "internalType": "string",
          "name": "",
          "type": "string"
        },
        {
          "internalType": "uint256",
          "name": "",
          "type": "uint256"
        }
      ],
      "name": "donationByUser",
      "outputs": [
        {
          "internalType": "string",
          "name": "userId",
          "type": "string"
        },
        {
          "internalType": "string",
          "name": "oroId",
          "type": "string"
        },
        {
          "internalType": "uint256",
          "name": "amount",
          "type": "uint256"
        },
        {
          "internalType": "uint256",
          "name": "timestamp",
          "type": "uint256"
        }
      ],
      "stateMutability": "view",
      "type": "function",
      "constant": true
    },
    {
      "inputs": [],
      "name": "owner",
      "outputs": [
        {
          "internalType": "address",
          "name": "",
          "type": "address"
        }
      ],
      "stateMutability": "view",
      "type": "function",
      "constant": true
    },
    {
      "inputs": [],
      "name": "totalDonationAmount",
      "outputs": [
        {
          "internalType": "uint256",
          "name": "",
          "type": "uint256"
        }
      ],
      "stateMutability": "view",
      "type": "function",
      "constant": true
    },
    {
      "inputs": [
        {
          "internalType": "string",
          "name": "",
          "type": "string"
        }
      ],
      "name": "totalDonationAmountByUser",
      "outputs": [
        {
          "internalType": "uint256",
          "name": "",
          "type": "uint256"
        }
      ],
      "stateMutability": "view",
      "type": "function",
      "constant": true
    },
    {
      "inputs": [],
      "name": "totalDonationCount",
      "outputs": [
        {
          "internalType": "uint256",
          "name": "",
          "type": "uint256"
        }
      ],
      "stateMutability": "view",
      "type": "function",
      "constant": true
    },
    {
      "inputs": [
        {
          "components": [
            {
              "internalType": "string",
              "name": "userId",
              "type": "string"
            },
            {
              "internalType": "string",
              "name": "oroId",
              "type": "string"
            },
            {
              "internalType": "uint256",
              "name": "amount",
              "type": "uint256"
            },
            {
              "internalType": "uint256",
              "name": "timestamp",
              "type": "uint256"
            }
          ],
          "internalType": "struct AmazonPayDonation.Donation",
          "name": "donationInfo",
          "type": "tuple"
        }
      ],
      "name": "saveDonation",
      "outputs": [],
      "stateMutability": "nonpayable",
      "type": "function"
    },
    {
      "inputs": [
        {
          "internalType": "string",
          "name": "userId",
          "type": "string"
        }
      ],
      "name": "countDonation",
      "outputs": [
        {
          "internalType": "uint256",
          "name": "",
          "type": "uint256"
        }
      ],
      "stateMutability": "view",
      "type": "function",
      "constant": true
    }
  ],
  "bytecode": "0x608060405234801561001057600080fd5b50336000806101000a81548173ffffffffffffffffffffffffffffffffffffffff021916908373ffffffffffffffffffffffffffffffffffffffff160217905550610c8b806100606000396000f3fe608060405234801561001057600080fd5b506004361061007d5760003560e01c806369c6874a1161005b57806369c6874a146100f15780636d20fd65146101215780638da5cb5b1461013d5780639840ba9b1461015b5761007d565b806309b8a1ad146100825780630b024f87146100b557806317849646146100d3575b600080fd5b61009c6004803603810190610097919061077e565b61018b565b6040516100ac9493929190610935565b60405180910390f35b6100bd6102fe565b6040516100ca91906109a8565b60405180910390f35b6100db610304565b6040516100e891906109a8565b60405180910390f35b61010b6004803603810190610106919061073d565b61030a565b60405161011891906109a8565b60405180910390f35b61013b600480360381019061013691906107d2565b610338565b005b61014561052a565b60405161015291906108d5565b60405180910390f35b6101756004803603810190610170919061073d565b61054e565b60405161018291906109a8565b60405180910390f35b60038280516020810182018051848252602083016020850120818352809550505050505081815481106101bd57600080fd5b9060005260206000209060040201600091509150508060000180546101e190610b14565b80601f016020809104026020016040519081016040528092919081815260200182805461020d90610b14565b801561025a5780601f1061022f5761010080835404028352916020019161025a565b820191906000526020600020905b81548152906001019060200180831161023d57829003601f168201915b50505050509080600101805461026f90610b14565b80601f016020809104026020016040519081016040528092919081815260200182805461029b90610b14565b80156102e85780601f106102bd576101008083540402835291602001916102e8565b820191906000526020600020905b8154815290600101906020018083116102cb57829003601f168201915b5050505050908060020154908060030154905084565b60025481565b60015481565b6004818051602081018201805184825260208301602085012081835280955050505050506000915090505481565b3373ffffffffffffffffffffffffffffffffffffffff1660008054906101000a900473ffffffffffffffffffffffffffffffffffffffff1673ffffffffffffffffffffffffffffffffffffffff16146103c6576040517f08c379a00000000000000000000000000000000000000000000000000000000081526004016103bd90610988565b60405180910390fd5b42816060018181525050600381600001516040516103e491906108be565b90815260200160405180910390208190806001815401808255809150506001900390600052602060002090600402016000909190919091506000820151816000019080519060200190610438929190610579565b506020820151816001019080519060200190610455929190610579565b506040820151816002015560608201518160030155505080604001516004826000015160405161048591906108be565b908152602001604051809103902060008282546104a29190610a40565b925050819055508060400151600160008282546104bf9190610a40565b925050819055506001600260008282546104d99190610a40565b925050819055507f5ee6203fca1335afd963a15f09b165d8820dcadba056f44bcb200f5ab9d7a7bb81600001518260200151836040015160405161051f939291906108f0565b60405180910390a150565b60008054906101000a900473ffffffffffffffffffffffffffffffffffffffff1681565b600060038260405161056091906108be565b9081526020016040518091039020805490509050919050565b82805461058590610b14565b90600052602060002090601f0160209004810192826105a757600085556105ee565b82601f106105c057805160ff19168380011785556105ee565b828001600101855582156105ee579182015b828111156105ed5782518255916020019190600101906105d2565b5b5090506105fb91906105ff565b5090565b5b80821115610618576000816000905550600101610600565b5090565b600061062f61062a846109e8565b6109c3565b90508281526020810184848401111561064757600080fd5b610652848285610ad2565b509392505050565b600082601f83011261066b57600080fd5b813561067b84826020860161061c565b91505092915050565b60006080828403121561069657600080fd5b6106a060806109c3565b9050600082013567ffffffffffffffff8111156106bc57600080fd5b6106c88482850161065a565b600083015250602082013567ffffffffffffffff8111156106e857600080fd5b6106f48482850161065a565b602083015250604061070884828501610728565b604083015250606061071c84828501610728565b60608301525092915050565b60008135905061073781610c3e565b92915050565b60006020828403121561074f57600080fd5b600082013567ffffffffffffffff81111561076957600080fd5b6107758482850161065a565b91505092915050565b6000806040838503121561079157600080fd5b600083013567ffffffffffffffff8111156107ab57600080fd5b6107b78582860161065a565b92505060206107c885828601610728565b9150509250929050565b6000602082840312156107e457600080fd5b600082013567ffffffffffffffff8111156107fe57600080fd5b61080a84828501610684565b91505092915050565b61081c81610a96565b82525050565b600061082d82610a19565b6108378185610a24565b9350610847818560208601610ae1565b61085081610c04565b840191505092915050565b600061086682610a19565b6108708185610a35565b9350610880818560208601610ae1565b80840191505092915050565b6000610899602083610a24565b91506108a482610c15565b602082019050919050565b6108b881610ac8565b82525050565b60006108ca828461085b565b915081905092915050565b60006020820190506108ea6000830184610813565b92915050565b6000606082019050818103600083015261090a8186610822565b9050818103602083015261091e8185610822565b905061092d60408301846108af565b949350505050565b6000608082019050818103600083015261094f8187610822565b905081810360208301526109638186610822565b905061097260408301856108af565b61097f60608301846108af565b95945050505050565b600060208201905081810360008301526109a18161088c565b9050919050565b60006020820190506109bd60008301846108af565b92915050565b60006109cd6109de565b90506109d98282610b46565b919050565b6000604051905090565b600067ffffffffffffffff821115610a0357610a02610bd5565b5b610a0c82610c04565b9050602081019050919050565b600081519050919050565b600082825260208201905092915050565b600081905092915050565b6000610a4b82610ac8565b9150610a5683610ac8565b9250827fffffffffffffffffffffffffffffffffffffffffffffffffffffffffffffffff03821115610a8b57610a8a610b77565b5b828201905092915050565b6000610aa182610aa8565b9050919050565b600073ffffffffffffffffffffffffffffffffffffffff82169050919050565b6000819050919050565b82818337600083830152505050565b60005b83811015610aff578082015181840152602081019050610ae4565b83811115610b0e576000848401525b50505050565b60006002820490506001821680610b2c57607f821691505b60208210811415610b4057610b3f610ba6565b5b50919050565b610b4f82610c04565b810181811067ffffffffffffffff82111715610b6e57610b6d610bd5565b5b80604052505050565b7f4e487b7100000000000000000000000000000000000000000000000000000000600052601160045260246000fd5b7f4e487b7100000000000000000000000000000000000000000000000000000000600052602260045260246000fd5b7f4e487b7100000000000000000000000000000000000000000000000000000000600052604160045260246000fd5b6000601f19601f8301169050919050565b7f4f776e61626c653a2063616c6c6572206973206e6f7420746865206f776e6572600082015250565b610c4781610ac8565b8114610c5257600080fd5b5056fea2646970667358221220c6aa2b178d28d7234fb332e0f8994f19099685a955398c89756de419ef36df5364736f6c63430008030033",
  "immutableReferences": {},
  "source": "// SPDX-License-Identifier: MIT\npragma solidity >=0.8.0 <0.9.0;\n\ncontract AmazonPayDonation {\n\n  //\n  address public owner;\n\n  //emitevent\n  event Donated(string userId, string oroId, uint amount );\n\n  //\n  struct Donation {\n    string userId;\n    string oroId;\n    uint amount;\n    uint timestamp;\n  }\n\n  //\n  uint public totalDonationAmount;\n  //\n  uint public totalDonationCount;\n  // donationByUser[userId] => []\n  mapping(string => Donation[]) public donationByUser;\n  //\n  mapping(string => uint) public totalDonationAmountByUser;\n\n  constructor() {\n    owner = msg.sender;\n  }\n\n  function saveDonation(Donation memory donationInfo) public onlyOwner {\n    donationInfo.timestamp = block.timestamp;\n    donationByUser[donationInfo.userId].push(donationInfo);\n    totalDonationAmountByUser[donationInfo.userId] += donationInfo.amount;\n    totalDonationAmount += donationInfo.amount;\n    totalDonationCount += 1;\n    emit Donated(donationInfo.userId, donationInfo.oroId, donationInfo.amount);\n  }\n\n  function countDonation(string memory userId) public view returns (uint) {\n    return donationByUser[userId].length;\n  }\n\n  modifier onlyOwner() {\n    require(owner == msg.sender, \"Ownable: caller is not the owner\");\n    _;\n  }\n}\n",
  "sourcePath": "/home/johna/src/crypto/AmazonPayDonationBlockchain/contracts/AmazonPayDonation.sol",
  "compiler": {
    "name": "solc",
    "version": "0.8.3+commit.8d00100c.Emscripten.clang"
  },
  "schemaVersion": "3.4.1",
  "updatedAt": "2021-09-28T01:45:23.364Z",
  "networkType": "ethereum",
  "devdoc": {
    "kind": "dev",
    "methods": {},
    "version": 1
  },
  "userdoc": {
    "kind": "user",
    "methods": {},
    "version": 1
  }
}