{
  "contractName": "AmazonPayDonation",
  "abi": [
    {
      "inputs": [],
      "stateMutability": "nonpayable",
      "type": "constructor"
    },
    {
      "anonymous": false,
      "inputs": [
        {
          "indexed": false,
          "internalType": "string",
          "name": "userId",
          "type": "string"
        },
        {
          "indexed": false,
          "internalType": "string",
          "name": "oroId",
          "type": "string"
        },
        {
          "indexed": false,
          "internalType": "uint256",
          "name": "amount",
          "type": "uint256"
        }
      ],
      "name": "Donated",
      "type": "event"
    },
    {
      "inputs": [
        {
          "internalType": "string",
          "name": "",
          "type": "string"
        },
        {
          "internalType": "uint256",
          "name": "",
          "type": "uint256"
        }
      ],
      "name": "donations",
      "outputs": [
        {
          "internalType": "string",
          "name": "userId",
          "type": "string"
        },
        {
          "internalType": "string",
          "name": "oroId",
          "type": "string"
        },
        {
          "internalType": "uint256",
          "name": "amount",
          "type": "uint256"
        },
        {
          "internalType": "uint256",
          "name": "timestamp",
          "type": "uint256"
        }
      ],
      "stateMutability": "view",
      "type": "function",
      "constant": true
    },
    {
      "inputs": [],
      "name": "owner",
      "outputs": [
        {
          "internalType": "address",
          "name": "",
          "type": "address"
        }
      ],
      "stateMutability": "view",
      "type": "function",
      "constant": true
    },
    {
      "inputs": [],
      "name": "totalAmount",
      "outputs": [
        {
          "internalType": "uint256",
          "name": "",
          "type": "uint256"
        }
      ],
      "stateMutability": "view",
      "type": "function",
      "constant": true
    },
    {
      "inputs": [],
      "name": "totalCount",
      "outputs": [
        {
          "internalType": "uint256",
          "name": "",
          "type": "uint256"
        }
      ],
      "stateMutability": "view",
      "type": "function",
      "constant": true
    },
    {
      "inputs": [
        {
          "internalType": "string",
          "name": "",
          "type": "string"
        }
      ],
      "name": "totalDonation",
      "outputs": [
        {
          "internalType": "uint256",
          "name": "",
          "type": "uint256"
        }
      ],
      "stateMutability": "view",
      "type": "function",
      "constant": true
    },
    {
      "inputs": [
        {
          "components": [
            {
              "internalType": "string",
              "name": "userId",
              "type": "string"
            },
            {
              "internalType": "string",
              "name": "oroId",
              "type": "string"
            },
            {
              "internalType": "uint256",
              "name": "amount",
              "type": "uint256"
            },
            {
              "internalType": "uint256",
              "name": "timestamp",
              "type": "uint256"
            }
          ],
          "internalType": "struct AmazonPayDonation.Donation",
          "name": "donationInfo",
          "type": "tuple"
        }
      ],
      "name": "saveDonation",
      "outputs": [],
      "stateMutability": "nonpayable",
      "type": "function"
    },
    {
      "inputs": [
        {
          "internalType": "string",
          "name": "userId",
          "type": "string"
        }
      ],
      "name": "getDonation",
      "outputs": [
        {
          "components": [
            {
              "internalType": "string",
              "name": "userId",
              "type": "string"
            },
            {
              "internalType": "string",
              "name": "oroId",
              "type": "string"
            },
            {
              "internalType": "uint256",
              "name": "amount",
              "type": "uint256"
            },
            {
              "internalType": "uint256",
              "name": "timestamp",
              "type": "uint256"
            }
          ],
          "internalType": "struct AmazonPayDonation.Donation[]",
          "name": "",
          "type": "tuple[]"
        }
      ],
      "stateMutability": "view",
      "type": "function",
      "constant": true
    },
    {
      "inputs": [
        {
          "internalType": "string",
          "name": "userId",
          "type": "string"
        }
      ],
      "name": "countDonation",
      "outputs": [
        {
          "internalType": "uint256",
          "name": "",
          "type": "uint256"
        }
      ],
      "stateMutability": "view",
      "type": "function",
      "constant": true
    }
  ],
  "bytecode": "0x608060405234801561001057600080fd5b50336000806101000a81548173ffffffffffffffffffffffffffffffffffffffff021916908373ffffffffffffffffffffffffffffffffffffffff160217905550611025806100606000396000f3fe608060405234801561001057600080fd5b50600436106100885760003560e01c80636d20fd651161005b5780636d20fd651461012c5780638da5cb5b146101485780639840ba9b14610166578063d3396d6f1461019657610088565b80631a39d8ef1461008d5780631c1398d2146100ab57806334eafb11146100de5780635adce332146100fc575b600080fd5b6100956101c6565b6040516100a29190610cf8565b60405180910390f35b6100c560048036038101906100c09190610971565b6101cc565b6040516100d59493929190610c85565b60405180910390f35b6100e661033f565b6040516100f39190610cf8565b60405180910390f35b61011660048036038101906101119190610930565b610345565b6040516101239190610c1e565b60405180910390f35b610146600480360381019061014191906109c5565b6104fa565b005b6101506106ef565b60405161015d9190610c03565b60405180910390f35b610180600480360381019061017b9190610930565b610713565b60405161018d9190610cf8565b60405180910390f35b6101b060048036038101906101ab9190610930565b61073e565b6040516101bd9190610cf8565b60405180910390f35b60015481565b60038280516020810182018051848252602083016020850120818352809550505050505081815481106101fe57600080fd5b90600052602060002090600402016000915091505080600001805461022290610eae565b80601f016020809104026020016040519081016040528092919081815260200182805461024e90610eae565b801561029b5780601f106102705761010080835404028352916020019161029b565b820191906000526020600020905b81548152906001019060200180831161027e57829003601f168201915b5050505050908060010180546102b090610eae565b80601f01602080910402602001604051908101604052809291908181526020018280546102dc90610eae565b80156103295780601f106102fe57610100808354040283529160200191610329565b820191906000526020600020905b81548152906001019060200180831161030c57829003601f168201915b5050505050908060020154908060030154905084565b60025481565b60606003826040516103579190610bec565b9081526020016040518091039020805480602002602001604051908101604052809291908181526020016000905b828210156104ef57838290600052602060002090600402016040518060800160405290816000820180546103b890610eae565b80601f01602080910402602001604051908101604052809291908181526020018280546103e490610eae565b80156104315780601f1061040657610100808354040283529160200191610431565b820191906000526020600020905b81548152906001019060200180831161041457829003601f168201915b5050505050815260200160018201805461044a90610eae565b80601f016020809104026020016040519081016040528092919081815260200182805461047690610eae565b80156104c35780601f10610498576101008083540402835291602001916104c3565b820191906000526020600020905b8154815290600101906020018083116104a657829003601f168201915b505050505081526020016002820154815260200160038201548152505081526020019060010190610385565b505050509050919050565b3373ffffffffffffffffffffffffffffffffffffffff1660008054906101000a900473ffffffffffffffffffffffffffffffffffffffff1673ffffffffffffffffffffffffffffffffffffffff1614610588576040517f08c379a000000000000000000000000000000000000000000000000000000000815260040161057f90610cd8565b60405180910390fd5b42816060018181525050600381600001516040516105a69190610bec565b908152602001604051809103902081908060018154018082558091505060019003906000526020600020906004020160009091909190915060008201518160000190805190602001906105fa92919061076c565b50602082015181600101908051906020019061061792919061076c565b50604082015181600201556060820151816003015550508060400151600482600001516040516106479190610bec565b908152602001604051809103902060008282546106649190610dda565b925050819055508060400151600160008282546106819190610dda565b9250508190555080604001516002600082825461069e9190610dda565b925050819055507f5ee6203fca1335afd963a15f09b165d8820dcadba056f44bcb200f5ab9d7a7bb8160000151826020015183604001516040516106e493929190610c40565b60405180910390a150565b60008054906101000a900473ffffffffffffffffffffffffffffffffffffffff1681565b60006003826040516107259190610bec565b9081526020016040518091039020805490509050919050565b6004818051602081018201805184825260208301602085012081835280955050505050506000915090505481565b82805461077890610eae565b90600052602060002090601f01602090048101928261079a57600085556107e1565b82601f106107b357805160ff19168380011785556107e1565b828001600101855582156107e1579182015b828111156107e05782518255916020019190600101906107c5565b5b5090506107ee91906107f2565b5090565b5b8082111561080b5760008160009055506001016107f3565b5090565b600061082261081d84610d38565b610d13565b90508281526020810184848401111561083a57600080fd5b610845848285610e6c565b509392505050565b600082601f83011261085e57600080fd5b813561086e84826020860161080f565b91505092915050565b60006080828403121561088957600080fd5b6108936080610d13565b9050600082013567ffffffffffffffff8111156108af57600080fd5b6108bb8482850161084d565b600083015250602082013567ffffffffffffffff8111156108db57600080fd5b6108e78482850161084d565b60208301525060406108fb8482850161091b565b604083015250606061090f8482850161091b565b60608301525092915050565b60008135905061092a81610fd8565b92915050565b60006020828403121561094257600080fd5b600082013567ffffffffffffffff81111561095c57600080fd5b6109688482850161084d565b91505092915050565b6000806040838503121561098457600080fd5b600083013567ffffffffffffffff81111561099e57600080fd5b6109aa8582860161084d565b92505060206109bb8582860161091b565b9150509250929050565b6000602082840312156109d757600080fd5b600082013567ffffffffffffffff8111156109f157600080fd5b6109fd84828501610877565b91505092915050565b6000610a128383610b64565b905092915050565b610a2381610e30565b82525050565b6000610a3482610d79565b610a3e8185610d9c565b935083602082028501610a5085610d69565b8060005b85811015610a8c5784840389528151610a6d8582610a06565b9450610a7883610d8f565b925060208a01995050600181019050610a54565b50829750879550505050505092915050565b6000610aa982610d84565b610ab38185610dad565b9350610ac3818560208601610e7b565b610acc81610f9e565b840191505092915050565b6000610ae282610d84565b610aec8185610dbe565b9350610afc818560208601610e7b565b610b0581610f9e565b840191505092915050565b6000610b1b82610d84565b610b258185610dcf565b9350610b35818560208601610e7b565b80840191505092915050565b6000610b4e602083610dbe565b9150610b5982610faf565b602082019050919050565b60006080830160008301518482036000860152610b818282610a9e565b91505060208301518482036020860152610b9b8282610a9e565b9150506040830151610bb06040860182610bce565b506060830151610bc36060860182610bce565b508091505092915050565b610bd781610e62565b82525050565b610be681610e62565b82525050565b6000610bf88284610b10565b915081905092915050565b6000602082019050610c186000830184610a1a565b92915050565b60006020820190508181036000830152610c388184610a29565b905092915050565b60006060820190508181036000830152610c5a8186610ad7565b90508181036020830152610c6e8185610ad7565b9050610c7d6040830184610bdd565b949350505050565b60006080820190508181036000830152610c9f8187610ad7565b90508181036020830152610cb38186610ad7565b9050610cc26040830185610bdd565b610ccf6060830184610bdd565b95945050505050565b60006020820190508181036000830152610cf181610b41565b9050919050565b6000602082019050610d0d6000830184610bdd565b92915050565b6000610d1d610d2e565b9050610d298282610ee0565b919050565b6000604051905090565b600067ffffffffffffffff821115610d5357610d52610f6f565b5b610d5c82610f9e565b9050602081019050919050565b6000819050602082019050919050565b600081519050919050565b600081519050919050565b6000602082019050919050565b600082825260208201905092915050565b600082825260208201905092915050565b600082825260208201905092915050565b600081905092915050565b6000610de582610e62565b9150610df083610e62565b9250827fffffffffffffffffffffffffffffffffffffffffffffffffffffffffffffffff03821115610e2557610e24610f11565b5b828201905092915050565b6000610e3b82610e42565b9050919050565b600073ffffffffffffffffffffffffffffffffffffffff82169050919050565b6000819050919050565b82818337600083830152505050565b60005b83811015610e99578082015181840152602081019050610e7e565b83811115610ea8576000848401525b50505050565b60006002820490506001821680610ec657607f821691505b60208210811415610eda57610ed9610f40565b5b50919050565b610ee982610f9e565b810181811067ffffffffffffffff82111715610f0857610f07610f6f565b5b80604052505050565b7f4e487b7100000000000000000000000000000000000000000000000000000000600052601160045260246000fd5b7f4e487b7100000000000000000000000000000000000000000000000000000000600052602260045260246000fd5b7f4e487b7100000000000000000000000000000000000000000000000000000000600052604160045260246000fd5b6000601f19601f8301169050919050565b7f4f776e61626c653a2063616c6c6572206973206e6f7420746865206f776e6572600082015250565b610fe181610e62565b8114610fec57600080fd5b5056fea26469706673582212204cbd430f47288252d332b152c0a663c4c3b9c39bd74f863863de85d84dd1d3da64736f6c63430008030033",
  "immutableReferences": {},
  "source": "// SPDX-License-Identifier: MIT\npragma solidity >=0.8.0 <0.9.0;\n\ncontract AmazonPayDonation {\n\n  address public owner;\n\n  event Donated(string userId, string oroId, uint amount );\n\n  struct Donation {\n    string userId;\n    string oroId;\n    uint amount;\n    uint timestamp;\n  }\n\n  uint public totalAmount;\n  uint public totalCount;\n  mapping(string => Donation[]) public donations;\n  mapping(string => uint) public totalDonation;\n\n  string private name;\n\n  constructor() {\n    owner = msg.sender;\n  }\n\n  function saveDonation(Donation memory donationInfo) public onlyOwner {\n    donationInfo.timestamp = block.timestamp;\n    donations[donationInfo.userId].push(donationInfo);\n    totalDonation[donationInfo.userId] += donationInfo.amount;\n    totalAmount += donationInfo.amount;\n    totalCount += donationInfo.amount;\n    emit Donated(donationInfo.userId, donationInfo.oroId, donationInfo.amount);\n  }\n\n  function getDonation(string memory userId) public view returns (Donation[] memory) {\n    return donations[userId];\n  }\n\n  function countDonation(string memory userId) public view returns (uint) {\n    return donations[userId].length;\n  }\n\n  modifier onlyOwner() {\n    require(owner == msg.sender, \"Ownable: caller is not the owner\");\n    _;\n  }\n}\n",
  "sourcePath": "/home/johna/src/crypto/AmazonPayDonationBlockchain/contracts/AmazonPayDonation.sol",
  "compiler": {
    "name": "solc",
    "version": "0.8.3+commit.8d00100c.Emscripten.clang"
  },
  "schemaVersion": "3.4.1",
  "updatedAt": "2021-08-24T12:13:07.201Z",
  "networkType": "ethereum",
  "devdoc": {
    "kind": "dev",
    "methods": {},
    "version": 1
  },
  "userdoc": {
    "kind": "user",
    "methods": {},
    "version": 1
  }
}