{
  "contractName": "AmazonPayDonation",
  "abi": [
    {
      "inputs": [],
      "stateMutability": "nonpayable",
      "type": "constructor"
    },
    {
      "inputs": [
        {
          "internalType": "string",
          "name": "",
          "type": "string"
        },
        {
          "internalType": "uint256",
          "name": "",
          "type": "uint256"
        }
      ],
      "name": "donations",
      "outputs": [
        {
          "internalType": "string",
          "name": "userId",
          "type": "string"
        },
        {
          "internalType": "string",
          "name": "oroId",
          "type": "string"
        },
        {
          "internalType": "uint256",
          "name": "amount",
          "type": "uint256"
        }
      ],
      "stateMutability": "view",
      "type": "function",
      "constant": true
    },
    {
      "inputs": [],
      "name": "owner",
      "outputs": [
        {
          "internalType": "address",
          "name": "",
          "type": "address"
        }
      ],
      "stateMutability": "view",
      "type": "function",
      "constant": true
    },
    {
      "inputs": [
        {
          "internalType": "string",
          "name": "",
          "type": "string"
        }
      ],
      "name": "totalDonation",
      "outputs": [
        {
          "internalType": "uint256",
          "name": "",
          "type": "uint256"
        }
      ],
      "stateMutability": "view",
      "type": "function",
      "constant": true
    },
    {
      "inputs": [
        {
          "components": [
            {
              "internalType": "string",
              "name": "userId",
              "type": "string"
            },
            {
              "internalType": "string",
              "name": "oroId",
              "type": "string"
            },
            {
              "internalType": "uint256",
              "name": "amount",
              "type": "uint256"
            }
          ],
          "internalType": "struct AmazonPayDonation.Donation",
          "name": "donationInfo",
          "type": "tuple"
        }
      ],
      "name": "saveDonation",
      "outputs": [],
      "stateMutability": "nonpayable",
      "type": "function"
    },
    {
      "inputs": [
        {
          "internalType": "string",
          "name": "userId",
          "type": "string"
        }
      ],
      "name": "countDonation",
      "outputs": [
        {
          "internalType": "uint256",
          "name": "",
          "type": "uint256"
        }
      ],
      "stateMutability": "view",
      "type": "function",
      "constant": true
    }
  ],
  "bytecode": "0x608060405234801561001057600080fd5b50336000806101000a81548173ffffffffffffffffffffffffffffffffffffffff021916908373ffffffffffffffffffffffffffffffffffffffff160217905550610b67806100606000396000f3fe608060405234801561001057600080fd5b50600436106100575760003560e01c80631c1398d21461005c57806328cded5f1461008e5780638da5cb5b146100aa5780639840ba9b146100c8578063d3396d6f146100f8575b600080fd5b6100766004803603810190610071919061067f565b610128565b60405161008593929190610801565b60405180910390f35b6100a860048036038101906100a391906106db565b610295565b005b6100b26103f5565b6040516100bf91906107e6565b60405180910390f35b6100e260048036038101906100dd9190610636565b610419565b6040516100ef9190610866565b60405180910390f35b610112600480360381019061010d9190610636565b610444565b60405161011f9190610866565b60405180910390f35b600182805160208101820180518482526020830160208501208183528095505050505050818154811061015a57600080fd5b90600052602060002090600302016000915091505080600001805461017e906109d2565b80601f01602080910402602001604051908101604052809291908181526020018280546101aa906109d2565b80156101f75780601f106101cc576101008083540402835291602001916101f7565b820191906000526020600020905b8154815290600101906020018083116101da57829003601f168201915b50505050509080600101805461020c906109d2565b80601f0160208091040260200160405190810160405280929190818152602001828054610238906109d2565b80156102855780601f1061025a57610100808354040283529160200191610285565b820191906000526020600020905b81548152906001019060200180831161026857829003601f168201915b5050505050908060020154905083565b3373ffffffffffffffffffffffffffffffffffffffff1660008054906101000a900473ffffffffffffffffffffffffffffffffffffffff1673ffffffffffffffffffffffffffffffffffffffff1614610323576040517f08c379a000000000000000000000000000000000000000000000000000000000815260040161031a90610846565b60405180910390fd5b6001816000015160405161033791906107cf565b9081526020016040518091039020819080600181540180825580915050600190039060005260206000209060030201600090919091909150600082015181600001908051906020019061038b929190610472565b5060208201518160010190805190602001906103a8929190610472565b506040820151816002015550508060400151600282600001516040516103ce91906107cf565b908152602001604051809103902060008282546103eb91906108fe565b9250508190555050565b60008054906101000a900473ffffffffffffffffffffffffffffffffffffffff1681565b600060018260405161042b91906107cf565b9081526020016040518091039020805490509050919050565b6002818051602081018201805184825260208301602085012081835280955050505050506000915090505481565b82805461047e906109d2565b90600052602060002090601f0160209004810192826104a057600085556104e7565b82601f106104b957805160ff19168380011785556104e7565b828001600101855582156104e7579182015b828111156104e65782518255916020019190600101906104cb565b5b5090506104f491906104f8565b5090565b5b808211156105115760008160009055506001016104f9565b5090565b6000610528610523846108a6565b610881565b90508281526020810184848401111561054457610543610ad1565b5b61054f848285610990565b509392505050565b600082601f83011261056c5761056b610ac2565b5b813561057c848260208601610515565b91505092915050565b60006060828403121561059b5761059a610ac7565b5b6105a56060610881565b9050600082013567ffffffffffffffff8111156105c5576105c4610acc565b5b6105d184828501610557565b600083015250602082013567ffffffffffffffff8111156105f5576105f4610acc565b5b61060184828501610557565b602083015250604061061584828501610621565b60408301525092915050565b60008135905061063081610b1a565b92915050565b60006020828403121561064c5761064b610adb565b5b600082013567ffffffffffffffff81111561066a57610669610ad6565b5b61067684828501610557565b91505092915050565b6000806040838503121561069657610695610adb565b5b600083013567ffffffffffffffff8111156106b4576106b3610ad6565b5b6106c085828601610557565b92505060206106d185828601610621565b9150509250929050565b6000602082840312156106f1576106f0610adb565b5b600082013567ffffffffffffffff81111561070f5761070e610ad6565b5b61071b84828501610585565b91505092915050565b61072d81610954565b82525050565b600061073e826108d7565b61074881856108e2565b935061075881856020860161099f565b61076181610ae0565b840191505092915050565b6000610777826108d7565b61078181856108f3565b935061079181856020860161099f565b80840191505092915050565b60006107aa6020836108e2565b91506107b582610af1565b602082019050919050565b6107c981610986565b82525050565b60006107db828461076c565b915081905092915050565b60006020820190506107fb6000830184610724565b92915050565b6000606082019050818103600083015261081b8186610733565b9050818103602083015261082f8185610733565b905061083e60408301846107c0565b949350505050565b6000602082019050818103600083015261085f8161079d565b9050919050565b600060208201905061087b60008301846107c0565b92915050565b600061088b61089c565b90506108978282610a04565b919050565b6000604051905090565b600067ffffffffffffffff8211156108c1576108c0610a93565b5b6108ca82610ae0565b9050602081019050919050565b600081519050919050565b600082825260208201905092915050565b600081905092915050565b600061090982610986565b915061091483610986565b9250827fffffffffffffffffffffffffffffffffffffffffffffffffffffffffffffffff0382111561094957610948610a35565b5b828201905092915050565b600061095f82610966565b9050919050565b600073ffffffffffffffffffffffffffffffffffffffff82169050919050565b6000819050919050565b82818337600083830152505050565b60005b838110156109bd5780820151818401526020810190506109a2565b838111156109cc576000848401525b50505050565b600060028204905060018216806109ea57607f821691505b602082108114156109fe576109fd610a64565b5b50919050565b610a0d82610ae0565b810181811067ffffffffffffffff82111715610a2c57610a2b610a93565b5b80604052505050565b7f4e487b7100000000000000000000000000000000000000000000000000000000600052601160045260246000fd5b7f4e487b7100000000000000000000000000000000000000000000000000000000600052602260045260246000fd5b7f4e487b7100000000000000000000000000000000000000000000000000000000600052604160045260246000fd5b600080fd5b600080fd5b600080fd5b600080fd5b600080fd5b600080fd5b6000601f19601f8301169050919050565b7f4f776e61626c653a2063616c6c6572206973206e6f7420746865206f776e6572600082015250565b610b2381610986565b8114610b2e57600080fd5b5056fea26469706673582212205e52351bb4c222bb747fc10baafa23c05f08acc2c69cad2ccb5f0e8c29b35c4664736f6c63430008070033",
  "immutableReferences": {},
  "source": "// SPDX-License-Identifier: MIT\npragma solidity >=0.8.0 <0.9.0;\n\ncontract AmazonPayDonation {\n\n  address public owner;\n\n  struct Donation {\n    string userId;\n    string oroId;\n    uint amount;\n  }\n\n  mapping(string => Donation[]) public donations;\n  mapping(string => uint) public totalDonation;\n\n  constructor() {\n    owner = msg.sender;\n  }\n\n  function saveDonation(Donation memory donationInfo) public onlyOwner {\n    donations[donationInfo.userId].push(donationInfo);\n    totalDonation[donationInfo.userId] += donationInfo.amount;\n  }\n\n  function countDonation(string memory userId) public view returns (uint) {\n    return donations[userId].length;\n  }\n\n  modifier onlyOwner() {\n    require(owner == msg.sender, \"Ownable: caller is not the owner\");\n    _;\n  }\n}\n",
  "sourcePath": "/home/johna/src/crypto/AmazonPayDonationBlockchain/contracts/AmazonPayDonation.sol",
  "compiler": {
    "name": "solc",
    "version": "0.8.7+commit.e28d00a7.Emscripten.clang"
  },
  "schemaVersion": "3.4.1",
  "updatedAt": "2021-08-21T21:52:59.008Z",
  "networkType": "ethereum",
  "devdoc": {
    "kind": "dev",
    "methods": {},
    "version": 1
  },
  "userdoc": {
    "kind": "user",
    "methods": {},
    "version": 1
  }
}