{
  "contractName": "AmazonPayDonation",
  "abi": [
    {
      "inputs": [],
      "stateMutability": "nonpayable",
      "type": "constructor"
    },
    {
      "anonymous": false,
      "inputs": [
        {
          "indexed": false,
          "internalType": "string",
          "name": "userId",
          "type": "string"
        },
        {
          "indexed": false,
          "internalType": "string",
          "name": "oroId",
          "type": "string"
        },
        {
          "indexed": false,
          "internalType": "uint256",
          "name": "amount",
          "type": "uint256"
        }
      ],
      "name": "Donated",
      "type": "event"
    },
    {
      "inputs": [
        {
          "internalType": "string",
          "name": "",
          "type": "string"
        },
        {
          "internalType": "uint256",
          "name": "",
          "type": "uint256"
        }
      ],
      "name": "donations",
      "outputs": [
        {
          "internalType": "string",
          "name": "userId",
          "type": "string"
        },
        {
          "internalType": "string",
          "name": "oroId",
          "type": "string"
        },
        {
          "internalType": "uint256",
          "name": "amount",
          "type": "uint256"
        },
        {
          "internalType": "uint256",
          "name": "timestamp",
          "type": "uint256"
        }
      ],
      "stateMutability": "view",
      "type": "function",
      "constant": true
    },
    {
      "inputs": [],
      "name": "owner",
      "outputs": [
        {
          "internalType": "address",
          "name": "",
          "type": "address"
        }
      ],
      "stateMutability": "view",
      "type": "function",
      "constant": true
    },
    {
      "inputs": [],
      "name": "totalAmount",
      "outputs": [
        {
          "internalType": "uint256",
          "name": "",
          "type": "uint256"
        }
      ],
      "stateMutability": "view",
      "type": "function",
      "constant": true
    },
    {
      "inputs": [],
      "name": "totalCount",
      "outputs": [
        {
          "internalType": "uint256",
          "name": "",
          "type": "uint256"
        }
      ],
      "stateMutability": "view",
      "type": "function",
      "constant": true
    },
    {
      "inputs": [
        {
          "internalType": "string",
          "name": "",
          "type": "string"
        }
      ],
      "name": "totalDonation",
      "outputs": [
        {
          "internalType": "uint256",
          "name": "",
          "type": "uint256"
        }
      ],
      "stateMutability": "view",
      "type": "function",
      "constant": true
    },
    {
      "inputs": [
        {
          "components": [
            {
              "internalType": "string",
              "name": "userId",
              "type": "string"
            },
            {
              "internalType": "string",
              "name": "oroId",
              "type": "string"
            },
            {
              "internalType": "uint256",
              "name": "amount",
              "type": "uint256"
            },
            {
              "internalType": "uint256",
              "name": "timestamp",
              "type": "uint256"
            }
          ],
          "internalType": "struct AmazonPayDonation.Donation",
          "name": "donationInfo",
          "type": "tuple"
        }
      ],
      "name": "saveDonation",
      "outputs": [],
      "stateMutability": "nonpayable",
      "type": "function"
    },
    {
      "inputs": [
        {
          "internalType": "string",
          "name": "userId",
          "type": "string"
        }
      ],
      "name": "countDonation",
      "outputs": [
        {
          "internalType": "uint256",
          "name": "",
          "type": "uint256"
        }
      ],
      "stateMutability": "view",
      "type": "function",
      "constant": true
    }
  ],
  "bytecode": "0x608060405234801561001057600080fd5b50336000806101000a81548173ffffffffffffffffffffffffffffffffffffffff021916908373ffffffffffffffffffffffffffffffffffffffff160217905550610c8e806100606000396000f3fe608060405234801561001057600080fd5b506004361061007d5760003560e01c80636d20fd651161005b5780636d20fd65146100f15780638da5cb5b1461010d5780639840ba9b1461012b578063d3396d6f1461015b5761007d565b80631a39d8ef146100825780631c1398d2146100a057806334eafb11146100d3575b600080fd5b61008a61018b565b60405161009791906109ab565b60405180910390f35b6100ba60048036038101906100b59190610781565b610191565b6040516100ca9493929190610938565b60405180910390f35b6100db610304565b6040516100e891906109ab565b60405180910390f35b61010b600480360381019061010691906107d5565b61030a565b005b6101156104ff565b60405161012291906108d8565b60405180910390f35b61014560048036038101906101409190610740565b610523565b60405161015291906109ab565b60405180910390f35b61017560048036038101906101709190610740565b61054e565b60405161018291906109ab565b60405180910390f35b60015481565b60038280516020810182018051848252602083016020850120818352809550505050505081815481106101c357600080fd5b9060005260206000209060040201600091509150508060000180546101e790610b17565b80601f016020809104026020016040519081016040528092919081815260200182805461021390610b17565b80156102605780601f1061023557610100808354040283529160200191610260565b820191906000526020600020905b81548152906001019060200180831161024357829003601f168201915b50505050509080600101805461027590610b17565b80601f01602080910402602001604051908101604052809291908181526020018280546102a190610b17565b80156102ee5780601f106102c3576101008083540402835291602001916102ee565b820191906000526020600020905b8154815290600101906020018083116102d157829003601f168201915b5050505050908060020154908060030154905084565b60025481565b3373ffffffffffffffffffffffffffffffffffffffff1660008054906101000a900473ffffffffffffffffffffffffffffffffffffffff1673ffffffffffffffffffffffffffffffffffffffff1614610398576040517f08c379a000000000000000000000000000000000000000000000000000000000815260040161038f9061098b565b60405180910390fd5b42816060018181525050600381600001516040516103b691906108c1565b9081526020016040518091039020819080600181540180825580915050600190039060005260206000209060040201600090919091909150600082015181600001908051906020019061040a92919061057c565b50602082015181600101908051906020019061042792919061057c565b506040820151816002015560608201518160030155505080604001516004826000015160405161045791906108c1565b908152602001604051809103902060008282546104749190610a43565b925050819055508060400151600160008282546104919190610a43565b925050819055508060400151600260008282546104ae9190610a43565b925050819055507f5ee6203fca1335afd963a15f09b165d8820dcadba056f44bcb200f5ab9d7a7bb8160000151826020015183604001516040516104f4939291906108f3565b60405180910390a150565b60008054906101000a900473ffffffffffffffffffffffffffffffffffffffff1681565b600060038260405161053591906108c1565b9081526020016040518091039020805490509050919050565b6004818051602081018201805184825260208301602085012081835280955050505050506000915090505481565b82805461058890610b17565b90600052602060002090601f0160209004810192826105aa57600085556105f1565b82601f106105c357805160ff19168380011785556105f1565b828001600101855582156105f1579182015b828111156105f05782518255916020019190600101906105d5565b5b5090506105fe9190610602565b5090565b5b8082111561061b576000816000905550600101610603565b5090565b600061063261062d846109eb565b6109c6565b90508281526020810184848401111561064a57600080fd5b610655848285610ad5565b509392505050565b600082601f83011261066e57600080fd5b813561067e84826020860161061f565b91505092915050565b60006080828403121561069957600080fd5b6106a360806109c6565b9050600082013567ffffffffffffffff8111156106bf57600080fd5b6106cb8482850161065d565b600083015250602082013567ffffffffffffffff8111156106eb57600080fd5b6106f78482850161065d565b602083015250604061070b8482850161072b565b604083015250606061071f8482850161072b565b60608301525092915050565b60008135905061073a81610c41565b92915050565b60006020828403121561075257600080fd5b600082013567ffffffffffffffff81111561076c57600080fd5b6107788482850161065d565b91505092915050565b6000806040838503121561079457600080fd5b600083013567ffffffffffffffff8111156107ae57600080fd5b6107ba8582860161065d565b92505060206107cb8582860161072b565b9150509250929050565b6000602082840312156107e757600080fd5b600082013567ffffffffffffffff81111561080157600080fd5b61080d84828501610687565b91505092915050565b61081f81610a99565b82525050565b600061083082610a1c565b61083a8185610a27565b935061084a818560208601610ae4565b61085381610c07565b840191505092915050565b600061086982610a1c565b6108738185610a38565b9350610883818560208601610ae4565b80840191505092915050565b600061089c602083610a27565b91506108a782610c18565b602082019050919050565b6108bb81610acb565b82525050565b60006108cd828461085e565b915081905092915050565b60006020820190506108ed6000830184610816565b92915050565b6000606082019050818103600083015261090d8186610825565b905081810360208301526109218185610825565b905061093060408301846108b2565b949350505050565b600060808201905081810360008301526109528187610825565b905081810360208301526109668186610825565b905061097560408301856108b2565b61098260608301846108b2565b95945050505050565b600060208201905081810360008301526109a48161088f565b9050919050565b60006020820190506109c060008301846108b2565b92915050565b60006109d06109e1565b90506109dc8282610b49565b919050565b6000604051905090565b600067ffffffffffffffff821115610a0657610a05610bd8565b5b610a0f82610c07565b9050602081019050919050565b600081519050919050565b600082825260208201905092915050565b600081905092915050565b6000610a4e82610acb565b9150610a5983610acb565b9250827fffffffffffffffffffffffffffffffffffffffffffffffffffffffffffffffff03821115610a8e57610a8d610b7a565b5b828201905092915050565b6000610aa482610aab565b9050919050565b600073ffffffffffffffffffffffffffffffffffffffff82169050919050565b6000819050919050565b82818337600083830152505050565b60005b83811015610b02578082015181840152602081019050610ae7565b83811115610b11576000848401525b50505050565b60006002820490506001821680610b2f57607f821691505b60208210811415610b4357610b42610ba9565b5b50919050565b610b5282610c07565b810181811067ffffffffffffffff82111715610b7157610b70610bd8565b5b80604052505050565b7f4e487b7100000000000000000000000000000000000000000000000000000000600052601160045260246000fd5b7f4e487b7100000000000000000000000000000000000000000000000000000000600052602260045260246000fd5b7f4e487b7100000000000000000000000000000000000000000000000000000000600052604160045260246000fd5b6000601f19601f8301169050919050565b7f4f776e61626c653a2063616c6c6572206973206e6f7420746865206f776e6572600082015250565b610c4a81610acb565b8114610c5557600080fd5b5056fea2646970667358221220024f38d3e3081b00f4f203765e15545f655522492c70b41211a9442e02a00b4c64736f6c63430008030033",
  "immutableReferences": {},
  "source": "// SPDX-License-Identifier: MIT\npragma solidity >=0.8.0 <0.9.0;\n\ncontract AmazonPayDonation {\n\n  address public owner;\n\n  event Donated(string userId, string oroId, uint amount );\n\n  struct Donation {\n    string userId;\n    string oroId;\n    uint amount;\n    uint timestamp;\n  }\n\n  uint public totalAmount;\n  uint public totalCount;\n  mapping(string => Donation[]) public donations;\n  mapping(string => uint) public totalDonation;\n\n  string private name;\n\n  constructor() {\n    owner = msg.sender;\n  }\n\n  function saveDonation(Donation memory donationInfo) public onlyOwner {\n    donationInfo.timestamp = block.timestamp;\n    donations[donationInfo.userId].push(donationInfo);\n    totalDonation[donationInfo.userId] += donationInfo.amount;\n    totalAmount += donationInfo.amount;\n    totalCount += donationInfo.amount;\n    emit Donated(donationInfo.userId, donationInfo.oroId, donationInfo.amount);\n  }\n\n  function countDonation(string memory userId) public view returns (uint) {\n    return donations[userId].length;\n  }\n\n  modifier onlyOwner() {\n    require(owner == msg.sender, \"Ownable: caller is not the owner\");\n    _;\n  }\n}\n",
  "sourcePath": "/home/johna/src/crypto/AmazonPayDonationBlockchain/contracts/AmazonPayDonation.sol",
  "compiler": {
    "name": "solc",
    "version": "0.8.3+commit.8d00100c.Emscripten.clang"
  },
  "schemaVersion": "3.4.1",
  "updatedAt": "2021-08-24T18:51:44.199Z",
  "networkType": "ethereum",
  "devdoc": {
    "kind": "dev",
    "methods": {},
    "version": 1
  },
  "userdoc": {
    "kind": "user",
    "methods": {},
    "version": 1
  }
}