{
  "contractName": "AmazonPayDonation",
  "abi": [
    {
      "inputs": [],
      "stateMutability": "nonpayable",
      "type": "constructor"
    },
    {
      "anonymous": false,
      "inputs": [
        {
          "indexed": true,
          "internalType": "string",
          "name": "userId",
          "type": "string"
        },
        {
          "indexed": true,
          "internalType": "string",
          "name": "oroId",
          "type": "string"
        },
        {
          "indexed": false,
          "internalType": "uint256",
          "name": "amount",
          "type": "uint256"
        }
      ],
      "name": "Donated",
      "type": "event"
    },
    {
      "inputs": [
        {
          "internalType": "string",
          "name": "",
          "type": "string"
        },
        {
          "internalType": "uint256",
          "name": "",
          "type": "uint256"
        }
      ],
      "name": "donations",
      "outputs": [
        {
          "internalType": "string",
          "name": "userId",
          "type": "string"
        },
        {
          "internalType": "string",
          "name": "oroId",
          "type": "string"
        },
        {
          "internalType": "uint256",
          "name": "amount",
          "type": "uint256"
        },
        {
          "internalType": "uint256",
          "name": "timestamp",
          "type": "uint256"
        }
      ],
      "stateMutability": "view",
      "type": "function",
      "constant": true
    },
    {
      "inputs": [],
      "name": "owner",
      "outputs": [
        {
          "internalType": "address",
          "name": "",
          "type": "address"
        }
      ],
      "stateMutability": "view",
      "type": "function",
      "constant": true
    },
    {
      "inputs": [],
      "name": "total",
      "outputs": [
        {
          "internalType": "uint256",
          "name": "",
          "type": "uint256"
        }
      ],
      "stateMutability": "view",
      "type": "function",
      "constant": true
    },
    {
      "inputs": [
        {
          "internalType": "string",
          "name": "",
          "type": "string"
        }
      ],
      "name": "totalDonation",
      "outputs": [
        {
          "internalType": "uint256",
          "name": "",
          "type": "uint256"
        }
      ],
      "stateMutability": "view",
      "type": "function",
      "constant": true
    },
    {
      "inputs": [
        {
          "components": [
            {
              "internalType": "string",
              "name": "userId",
              "type": "string"
            },
            {
              "internalType": "string",
              "name": "oroId",
              "type": "string"
            },
            {
              "internalType": "uint256",
              "name": "amount",
              "type": "uint256"
            },
            {
              "internalType": "uint256",
              "name": "timestamp",
              "type": "uint256"
            }
          ],
          "internalType": "struct AmazonPayDonation.Donation",
          "name": "donationInfo",
          "type": "tuple"
        }
      ],
      "name": "saveDonation",
      "outputs": [],
      "stateMutability": "nonpayable",
      "type": "function"
    },
    {
      "inputs": [
        {
          "internalType": "string",
          "name": "userId",
          "type": "string"
        }
      ],
      "name": "countDonation",
      "outputs": [
        {
          "internalType": "uint256",
          "name": "",
          "type": "uint256"
        }
      ],
      "stateMutability": "view",
      "type": "function",
      "constant": true
    }
  ],
  "bytecode": "0x608060405234801561001057600080fd5b50336000806101000a81548173ffffffffffffffffffffffffffffffffffffffff021916908373ffffffffffffffffffffffffffffffffffffffff160217905550610c5f806100606000396000f3fe608060405234801561001057600080fd5b50600436106100625760003560e01c80631c1398d2146100675780632ddbd13a1461009a5780636d20fd65146100b85780638da5cb5b146100d45780639840ba9b146100f2578063d3396d6f14610122575b600080fd5b610081600480360381019061007c9190610769565b610152565b60405161009194939291906108eb565b60405180910390f35b6100a26102c5565b6040516100af919061095e565b60405180910390f35b6100d260048036038101906100cd91906107c5565b6102cb565b005b6100dc6104cb565b6040516100e991906108d0565b60405180910390f35b61010c60048036038101906101079190610720565b6104ef565b604051610119919061095e565b60405180910390f35b61013c60048036038101906101379190610720565b61051a565b604051610149919061095e565b60405180910390f35b600282805160208101820180518482526020830160208501208183528095505050505050818154811061018457600080fd5b9060005260206000209060040201600091509150508060000180546101a890610aca565b80601f01602080910402602001604051908101604052809291908181526020018280546101d490610aca565b80156102215780601f106101f657610100808354040283529160200191610221565b820191906000526020600020905b81548152906001019060200180831161020457829003601f168201915b50505050509080600101805461023690610aca565b80601f016020809104026020016040519081016040528092919081815260200182805461026290610aca565b80156102af5780601f10610284576101008083540402835291602001916102af565b820191906000526020600020905b81548152906001019060200180831161029257829003601f168201915b5050505050908060020154908060030154905084565b60015481565b3373ffffffffffffffffffffffffffffffffffffffff1660008054906101000a900473ffffffffffffffffffffffffffffffffffffffff1673ffffffffffffffffffffffffffffffffffffffff1614610359576040517f08c379a00000000000000000000000000000000000000000000000000000000081526004016103509061093e565b60405180910390fd5b428160600181815250506002816000015160405161037791906108b9565b908152602001604051809103902081908060018154018082558091505060019003906000526020600020906004020160009091909190915060008201518160000190805190602001906103cb929190610548565b5060208201518160010190805190602001906103e8929190610548565b506040820151816002015560608201518160030155505080604001516003826000015160405161041891906108b9565b9081526020016040518091039020600082825461043591906109f6565b9250508190555080604001516001600082825461045291906109f6565b92505081905550806020015160405161046b91906108b9565b6040518091039020816000015160405161048591906108b9565b60405180910390207f5ee6203fca1335afd963a15f09b165d8820dcadba056f44bcb200f5ab9d7a7bb83604001516040516104c0919061095e565b60405180910390a350565b60008054906101000a900473ffffffffffffffffffffffffffffffffffffffff1681565b600060028260405161050191906108b9565b9081526020016040518091039020805490509050919050565b6003818051602081018201805184825260208301602085012081835280955050505050506000915090505481565b82805461055490610aca565b90600052602060002090601f01602090048101928261057657600085556105bd565b82601f1061058f57805160ff19168380011785556105bd565b828001600101855582156105bd579182015b828111156105bc5782518255916020019190600101906105a1565b5b5090506105ca91906105ce565b5090565b5b808211156105e75760008160009055506001016105cf565b5090565b60006105fe6105f98461099e565b610979565b90508281526020810184848401111561061a57610619610bc9565b5b610625848285610a88565b509392505050565b600082601f83011261064257610641610bba565b5b81356106528482602086016105eb565b91505092915050565b60006080828403121561067157610670610bbf565b5b61067b6080610979565b9050600082013567ffffffffffffffff81111561069b5761069a610bc4565b5b6106a78482850161062d565b600083015250602082013567ffffffffffffffff8111156106cb576106ca610bc4565b5b6106d78482850161062d565b60208301525060406106eb8482850161070b565b60408301525060606106ff8482850161070b565b60608301525092915050565b60008135905061071a81610c12565b92915050565b60006020828403121561073657610735610bd3565b5b600082013567ffffffffffffffff81111561075457610753610bce565b5b6107608482850161062d565b91505092915050565b600080604083850312156107805761077f610bd3565b5b600083013567ffffffffffffffff81111561079e5761079d610bce565b5b6107aa8582860161062d565b92505060206107bb8582860161070b565b9150509250929050565b6000602082840312156107db576107da610bd3565b5b600082013567ffffffffffffffff8111156107f9576107f8610bce565b5b6108058482850161065b565b91505092915050565b61081781610a4c565b82525050565b6000610828826109cf565b61083281856109da565b9350610842818560208601610a97565b61084b81610bd8565b840191505092915050565b6000610861826109cf565b61086b81856109eb565b935061087b818560208601610a97565b80840191505092915050565b60006108946020836109da565b915061089f82610be9565b602082019050919050565b6108b381610a7e565b82525050565b60006108c58284610856565b915081905092915050565b60006020820190506108e5600083018461080e565b92915050565b60006080820190508181036000830152610905818761081d565b90508181036020830152610919818661081d565b905061092860408301856108aa565b61093560608301846108aa565b95945050505050565b6000602082019050818103600083015261095781610887565b9050919050565b600060208201905061097360008301846108aa565b92915050565b6000610983610994565b905061098f8282610afc565b919050565b6000604051905090565b600067ffffffffffffffff8211156109b9576109b8610b8b565b5b6109c282610bd8565b9050602081019050919050565b600081519050919050565b600082825260208201905092915050565b600081905092915050565b6000610a0182610a7e565b9150610a0c83610a7e565b9250827fffffffffffffffffffffffffffffffffffffffffffffffffffffffffffffffff03821115610a4157610a40610b2d565b5b828201905092915050565b6000610a5782610a5e565b9050919050565b600073ffffffffffffffffffffffffffffffffffffffff82169050919050565b6000819050919050565b82818337600083830152505050565b60005b83811015610ab5578082015181840152602081019050610a9a565b83811115610ac4576000848401525b50505050565b60006002820490506001821680610ae257607f821691505b60208210811415610af657610af5610b5c565b5b50919050565b610b0582610bd8565b810181811067ffffffffffffffff82111715610b2457610b23610b8b565b5b80604052505050565b7f4e487b7100000000000000000000000000000000000000000000000000000000600052601160045260246000fd5b7f4e487b7100000000000000000000000000000000000000000000000000000000600052602260045260246000fd5b7f4e487b7100000000000000000000000000000000000000000000000000000000600052604160045260246000fd5b600080fd5b600080fd5b600080fd5b600080fd5b600080fd5b600080fd5b6000601f19601f8301169050919050565b7f4f776e61626c653a2063616c6c6572206973206e6f7420746865206f776e6572600082015250565b610c1b81610a7e565b8114610c2657600080fd5b5056fea264697066735822122032e4221e506c28890ca6649bd8396dc990a07daa4823373c17b49896e9a00ada64736f6c63430008070033",
  "immutableReferences": {},
  "source": "// SPDX-License-Identifier: MIT\npragma solidity >=0.8.0 <0.9.0;\n\ncontract AmazonPayDonation {\n\n  address public owner;\n\n  event Donated( string indexed userId, string indexed oroId, uint amount );\n\n  struct Donation {\n    string userId;\n    string oroId;\n    uint amount;\n    uint timestamp;\n  }\n\n  uint public total;\n  mapping(string => Donation[]) public donations;\n  mapping(string => uint) public totalDonation;\n\n  constructor() {\n    owner = msg.sender;\n  }\n\n  function saveDonation(Donation memory donationInfo) public onlyOwner {\n    donationInfo.timestamp = block.timestamp;\n    donations[donationInfo.userId].push(donationInfo);\n    totalDonation[donationInfo.userId] += donationInfo.amount;\n    total += donationInfo.amount;\n    emit Donated(donationInfo.userId, donationInfo.oroId, donationInfo.amount);\n  }\n\n  function countDonation(string memory userId) public view returns (uint) {\n    return donations[userId].length;\n  }\n\n  modifier onlyOwner() {\n    require(owner == msg.sender, \"Ownable: caller is not the owner\");\n    _;\n  }\n}\n",
  "sourcePath": "/home/johna/src/crypto/AmazonPayDonationBlockchain/contracts/AmazonPayDonation.sol",
  "compiler": {
    "name": "solc",
    "version": "0.8.7+commit.e28d00a7.Emscripten.clang"
  },
  "schemaVersion": "3.4.1",
  "updatedAt": "2021-08-21T23:52:29.520Z",
  "networkType": "ethereum",
  "devdoc": {
    "kind": "dev",
    "methods": {},
    "version": 1
  },
  "userdoc": {
    "kind": "user",
    "methods": {},
    "version": 1
  }
}